{
  "_format": "hh-sol-artifact-1",
  "contractName": "CustomLiquidityToken",
  "sourceName": "contracts/MyToken.sol",
  "abi": [
    {
      "inputs": [],
      "stateMutability": "nonpayable",
      "type": "constructor"
    },
    {
      "inputs": [],
      "name": "ECDSAInvalidSignature",
      "type": "error"
    },
    {
      "inputs": [
        {
          "internalType": "uint256",
          "name": "length",
          "type": "uint256"
        }
      ],
      "name": "ECDSAInvalidSignatureLength",
      "type": "error"
    },
    {
      "inputs": [
        {
          "internalType": "bytes32",
          "name": "s",
          "type": "bytes32"
        }
      ],
      "name": "ECDSAInvalidSignatureS",
      "type": "error"
    },
    {
      "inputs": [
        {
          "internalType": "address",
          "name": "spender",
          "type": "address"
        },
        {
          "internalType": "uint256",
          "name": "allowance",
          "type": "uint256"
        },
        {
          "internalType": "uint256",
          "name": "needed",
          "type": "uint256"
        }
      ],
      "name": "ERC20InsufficientAllowance",
      "type": "error"
    },
    {
      "inputs": [
        {
          "internalType": "address",
          "name": "sender",
          "type": "address"
        },
        {
          "internalType": "uint256",
          "name": "balance",
          "type": "uint256"
        },
        {
          "internalType": "uint256",
          "name": "needed",
          "type": "uint256"
        }
      ],
      "name": "ERC20InsufficientBalance",
      "type": "error"
    },
    {
      "inputs": [
        {
          "internalType": "address",
          "name": "approver",
          "type": "address"
        }
      ],
      "name": "ERC20InvalidApprover",
      "type": "error"
    },
    {
      "inputs": [
        {
          "internalType": "address",
          "name": "receiver",
          "type": "address"
        }
      ],
      "name": "ERC20InvalidReceiver",
      "type": "error"
    },
    {
      "inputs": [
        {
          "internalType": "address",
          "name": "sender",
          "type": "address"
        }
      ],
      "name": "ERC20InvalidSender",
      "type": "error"
    },
    {
      "inputs": [
        {
          "internalType": "address",
          "name": "spender",
          "type": "address"
        }
      ],
      "name": "ERC20InvalidSpender",
      "type": "error"
    },
    {
      "inputs": [
        {
          "internalType": "uint256",
          "name": "deadline",
          "type": "uint256"
        }
      ],
      "name": "ERC2612ExpiredSignature",
      "type": "error"
    },
    {
      "inputs": [
        {
          "internalType": "address",
          "name": "signer",
          "type": "address"
        },
        {
          "internalType": "address",
          "name": "owner",
          "type": "address"
        }
      ],
      "name": "ERC2612InvalidSigner",
      "type": "error"
    },
    {
      "inputs": [
        {
          "internalType": "address",
          "name": "account",
          "type": "address"
        },
        {
          "internalType": "uint256",
          "name": "currentNonce",
          "type": "uint256"
        }
      ],
      "name": "InvalidAccountNonce",
      "type": "error"
    },
    {
      "inputs": [],
      "name": "InvalidInitialization",
      "type": "error"
    },
    {
      "inputs": [],
      "name": "NotInitializing",
      "type": "error"
    },
    {
      "inputs": [
        {
          "internalType": "address",
          "name": "owner",
          "type": "address"
        }
      ],
      "name": "OwnableInvalidOwner",
      "type": "error"
    },
    {
      "inputs": [
        {
          "internalType": "address",
          "name": "account",
          "type": "address"
        }
      ],
      "name": "OwnableUnauthorizedAccount",
      "type": "error"
    },
    {
      "anonymous": false,
      "inputs": [
        {
          "indexed": true,
          "internalType": "address",
          "name": "owner",
          "type": "address"
        },
        {
          "indexed": true,
          "internalType": "address",
          "name": "spender",
          "type": "address"
        },
        {
          "indexed": false,
          "internalType": "uint256",
          "name": "value",
          "type": "uint256"
        }
      ],
      "name": "Approval",
      "type": "event"
    },
    {
      "anonymous": false,
      "inputs": [],
      "name": "EIP712DomainChanged",
      "type": "event"
    },
    {
      "anonymous": false,
      "inputs": [
        {
          "indexed": false,
          "internalType": "uint64",
          "name": "version",
          "type": "uint64"
        }
      ],
      "name": "Initialized",
      "type": "event"
    },
    {
      "anonymous": false,
      "inputs": [
        {
          "indexed": true,
          "internalType": "address",
          "name": "previousOwner",
          "type": "address"
        },
        {
          "indexed": true,
          "internalType": "address",
          "name": "newOwner",
          "type": "address"
        }
      ],
      "name": "OwnershipTransferred",
      "type": "event"
    },
    {
      "anonymous": false,
      "inputs": [
        {
          "indexed": true,
          "internalType": "address",
          "name": "from",
          "type": "address"
        },
        {
          "indexed": true,
          "internalType": "address",
          "name": "to",
          "type": "address"
        },
        {
          "indexed": false,
          "internalType": "uint256",
          "name": "value",
          "type": "uint256"
        }
      ],
      "name": "Transfer",
      "type": "event"
    },
    {
      "anonymous": false,
      "inputs": [
        {
          "indexed": false,
          "internalType": "address",
          "name": "account",
          "type": "address"
        },
        {
          "indexed": false,
          "internalType": "uint256",
          "name": "amount",
          "type": "uint256"
        }
      ],
      "name": "Withdraw",
      "type": "event"
    },
    {
      "inputs": [],
      "name": "DOMAIN_SEPARATOR",
      "outputs": [
        {
          "internalType": "bytes32",
          "name": "",
          "type": "bytes32"
        }
      ],
      "stateMutability": "view",
      "type": "function"
    },
    {
      "inputs": [
        {
          "internalType": "uint256",
          "name": "tokenAmount",
          "type": "uint256"
        }
      ],
      "name": "addLiquidity",
      "outputs": [],
      "stateMutability": "payable",
      "type": "function"
    },
    {
      "inputs": [
        {
          "internalType": "address",
          "name": "owner",
          "type": "address"
        },
        {
          "internalType": "address",
          "name": "spender",
          "type": "address"
        }
      ],
      "name": "allowance",
      "outputs": [
        {
          "internalType": "uint256",
          "name": "",
          "type": "uint256"
        }
      ],
      "stateMutability": "view",
      "type": "function"
    },
    {
      "inputs": [
        {
          "internalType": "address",
          "name": "spender",
          "type": "address"
        },
        {
          "internalType": "uint256",
          "name": "value",
          "type": "uint256"
        }
      ],
      "name": "approve",
      "outputs": [
        {
          "internalType": "bool",
          "name": "",
          "type": "bool"
        }
      ],
      "stateMutability": "nonpayable",
      "type": "function"
    },
    {
      "inputs": [
        {
          "internalType": "address",
          "name": "account",
          "type": "address"
        }
      ],
      "name": "balanceOf",
      "outputs": [
        {
          "internalType": "uint256",
          "name": "",
          "type": "uint256"
        }
      ],
      "stateMutability": "view",
      "type": "function"
    },
    {
      "inputs": [
        {
          "internalType": "uint256",
          "name": "value",
          "type": "uint256"
        }
      ],
      "name": "burn",
      "outputs": [],
      "stateMutability": "nonpayable",
      "type": "function"
    },
    {
      "inputs": [
        {
          "internalType": "address",
          "name": "account",
          "type": "address"
        },
        {
          "internalType": "uint256",
          "name": "value",
          "type": "uint256"
        }
      ],
      "name": "burnFrom",
      "outputs": [],
      "stateMutability": "nonpayable",
      "type": "function"
    },
    {
      "inputs": [],
      "name": "claimVestedTokens",
      "outputs": [],
      "stateMutability": "nonpayable",
      "type": "function"
    },
    {
      "inputs": [],
      "name": "decimals",
      "outputs": [
        {
          "internalType": "uint8",
          "name": "",
          "type": "uint8"
        }
      ],
      "stateMutability": "view",
      "type": "function"
    },
    {
      "inputs": [],
      "name": "eip712Domain",
      "outputs": [
        {
          "internalType": "bytes1",
          "name": "fields",
          "type": "bytes1"
        },
        {
          "internalType": "string",
          "name": "name",
          "type": "string"
        },
        {
          "internalType": "string",
          "name": "version",
          "type": "string"
        },
        {
          "internalType": "uint256",
          "name": "chainId",
          "type": "uint256"
        },
        {
          "internalType": "address",
          "name": "verifyingContract",
          "type": "address"
        },
        {
          "internalType": "bytes32",
          "name": "salt",
          "type": "bytes32"
        },
        {
          "internalType": "uint256[]",
          "name": "extensions",
          "type": "uint256[]"
        }
      ],
      "stateMutability": "view",
      "type": "function"
    },
    {
      "inputs": [
        {
          "internalType": "address",
          "name": "initialOwner",
          "type": "address"
        },
        {
          "internalType": "uint256",
          "name": "_totalSupply",
          "type": "uint256"
        },
        {
          "internalType": "string",
          "name": "name",
          "type": "string"
        },
        {
          "internalType": "string",
          "name": "symbol",
          "type": "string"
        },
        {
          "internalType": "uint256",
          "name": "decimals",
          "type": "uint256"
        },
        {
          "internalType": "address",
          "name": "_teamAddress",
          "type": "address"
        },
        {
          "internalType": "uint256[]",
          "name": "ratio",
          "type": "uint256[]"
        }
      ],
      "name": "init",
      "outputs": [],
      "stateMutability": "nonpayable",
      "type": "function"
    },
    {
      "inputs": [],
      "name": "liqudityAllocation",
      "outputs": [
        {
          "internalType": "uint256",
          "name": "",
          "type": "uint256"
        }
      ],
      "stateMutability": "view",
      "type": "function"
    },
    {
      "inputs": [],
      "name": "name",
      "outputs": [
        {
          "internalType": "string",
          "name": "",
          "type": "string"
        }
      ],
      "stateMutability": "view",
      "type": "function"
    },
    {
      "inputs": [
        {
          "internalType": "address",
          "name": "owner",
          "type": "address"
        }
      ],
      "name": "nonces",
      "outputs": [
        {
          "internalType": "uint256",
          "name": "",
          "type": "uint256"
        }
      ],
      "stateMutability": "view",
      "type": "function"
    },
    {
      "inputs": [],
      "name": "owner",
      "outputs": [
        {
          "internalType": "address",
          "name": "",
          "type": "address"
        }
      ],
      "stateMutability": "view",
      "type": "function"
    },
    {
      "inputs": [
        {
          "internalType": "address",
          "name": "owner",
          "type": "address"
        },
        {
          "internalType": "address",
          "name": "spender",
          "type": "address"
        },
        {
          "internalType": "uint256",
          "name": "value",
          "type": "uint256"
        },
        {
          "internalType": "uint256",
          "name": "deadline",
          "type": "uint256"
        },
        {
          "internalType": "uint8",
          "name": "v",
          "type": "uint8"
        },
        {
          "internalType": "bytes32",
          "name": "r",
          "type": "bytes32"
        },
        {
          "internalType": "bytes32",
          "name": "s",
          "type": "bytes32"
        }
      ],
      "name": "permit",
      "outputs": [],
      "stateMutability": "nonpayable",
      "type": "function"
    },
    {
      "inputs": [
        {
          "internalType": "uint256",
          "name": "liquidity",
          "type": "uint256"
        }
      ],
      "name": "removeLiquidity",
      "outputs": [],
      "stateMutability": "nonpayable",
      "type": "function"
    },
    {
      "inputs": [
        {
          "internalType": "uint256",
          "name": "liquidity",
          "type": "uint256"
        }
      ],
      "name": "removeLiquidityAndBurnLP",
      "outputs": [],
      "stateMutability": "nonpayable",
      "type": "function"
    },
    {
      "inputs": [],
      "name": "renounceOwnership",
      "outputs": [],
      "stateMutability": "nonpayable",
      "type": "function"
    },
    {
      "inputs": [],
      "name": "symbol",
      "outputs": [
        {
          "internalType": "string",
          "name": "",
          "type": "string"
        }
      ],
      "stateMutability": "view",
      "type": "function"
    },
    {
      "inputs": [],
      "name": "teamAddress",
      "outputs": [
        {
          "internalType": "address",
          "name": "",
          "type": "address"
        }
      ],
      "stateMutability": "view",
      "type": "function"
    },
    {
      "inputs": [],
      "name": "teamAllocation",
      "outputs": [
        {
          "internalType": "uint256",
          "name": "",
          "type": "uint256"
        }
      ],
      "stateMutability": "view",
      "type": "function"
    },
    {
      "inputs": [],
      "name": "totalSupply",
      "outputs": [
        {
          "internalType": "uint256",
          "name": "",
          "type": "uint256"
        }
      ],
      "stateMutability": "view",
      "type": "function"
    },
    {
      "inputs": [],
      "name": "tradeBurnRatio",
      "outputs": [
        {
          "internalType": "uint256",
          "name": "",
          "type": "uint256"
        }
      ],
      "stateMutability": "view",
      "type": "function"
    },
    {
      "inputs": [],
      "name": "tradeFeeRatio",
      "outputs": [
        {
          "internalType": "uint256",
          "name": "",
          "type": "uint256"
        }
      ],
      "stateMutability": "view",
      "type": "function"
    },
    {
      "inputs": [
        {
          "internalType": "address",
          "name": "to",
          "type": "address"
        },
        {
          "internalType": "uint256",
          "name": "value",
          "type": "uint256"
        }
      ],
      "name": "transfer",
      "outputs": [
        {
          "internalType": "bool",
          "name": "",
          "type": "bool"
        }
      ],
      "stateMutability": "nonpayable",
      "type": "function"
    },
    {
      "inputs": [
        {
          "internalType": "address",
          "name": "from",
          "type": "address"
        },
        {
          "internalType": "address",
          "name": "to",
          "type": "address"
        },
        {
          "internalType": "uint256",
          "name": "value",
          "type": "uint256"
        }
      ],
      "name": "transferFrom",
      "outputs": [
        {
          "internalType": "bool",
          "name": "",
          "type": "bool"
        }
      ],
      "stateMutability": "nonpayable",
      "type": "function"
    },
    {
      "inputs": [
        {
          "internalType": "address",
          "name": "newOwner",
          "type": "address"
        }
      ],
      "name": "transferOwnership",
      "outputs": [],
      "stateMutability": "nonpayable",
      "type": "function"
    },
    {
      "inputs": [],
      "name": "uniswapRouter",
      "outputs": [
        {
          "internalType": "contract IUniswapV2Router02",
          "name": "",
          "type": "address"
        }
      ],
      "stateMutability": "view",
      "type": "function"
    },
    {
      "inputs": [],
      "name": "uniswapV2Pair",
      "outputs": [
        {
          "internalType": "contract IUniswapV2Pair",
          "name": "",
          "type": "address"
        }
      ],
      "stateMutability": "view",
      "type": "function"
    },
    {
      "inputs": [
        {
          "internalType": "uint256",
          "name": "_ratio",
          "type": "uint256"
        }
      ],
      "name": "updateBurnRatio",
      "outputs": [],
      "stateMutability": "nonpayable",
      "type": "function"
    },
    {
      "inputs": [
        {
          "internalType": "uint256",
          "name": "_fee",
          "type": "uint256"
        }
      ],
      "name": "updateFee",
      "outputs": [],
      "stateMutability": "nonpayable",
      "type": "function"
    },
    {
      "inputs": [
        {
          "internalType": "address",
          "name": "",
          "type": "address"
        }
      ],
      "name": "vestingSchedules",
      "outputs": [
        {
          "internalType": "uint256",
          "name": "totalAmount",
          "type": "uint256"
        },
        {
          "internalType": "uint256",
          "name": "amountClaimed",
          "type": "uint256"
        },
        {
          "internalType": "uint256",
          "name": "vestingStart",
          "type": "uint256"
        },
        {
          "internalType": "uint256",
          "name": "vestingDuration",
          "type": "uint256"
        },
        {
          "internalType": "uint256",
          "name": "lastClaimed",
          "type": "uint256"
        },
        {
          "internalType": "bool",
          "name": "isActive",
          "type": "bool"
        }
      ],
      "stateMutability": "view",
      "type": "function"
    },
    {
      "inputs": [],
      "name": "withdraw",
      "outputs": [],
      "stateMutability": "nonpayable",
      "type": "function"
    }
  ],
  "bytecode": "0x608060405234801561001057600080fd5b5061001f61002460201b60201c565b61018e565b600061003461012860201b60201c565b90508060000160089054906101000a900460ff161561007f576040517ff92ee8a900000000000000000000000000000000000000000000000000000000815260040160405180910390fd5b67ffffffffffffffff80168160000160009054906101000a900467ffffffffffffffff1667ffffffffffffffff16146101255767ffffffffffffffff8160000160006101000a81548167ffffffffffffffff021916908367ffffffffffffffff1602179055507fc7f505b2f371ae2175ee4913f4499e1f2633a7b5936321eed1cdaeb6115181d267ffffffffffffffff60405161011c9190610173565b60405180910390a15b50565b60007ff0c57e16840df040f15088dc2f81fe391c3923bec73e23a9662efc9c229c6a00905090565b600067ffffffffffffffff82169050919050565b61016d81610150565b82525050565b60006020820190506101886000830184610164565b92915050565b614cc48061019d6000396000f3fe6080604052600436106101f95760003560e01c80637ecebe001161010d578063a9059cbb116100a0578063e59850f71161006f578063e59850f71461070a578063e74f3fbb14610735578063e95ee3371461074c578063f2fde38b14610775578063fdb20ccb1461079e576101f9565b8063a9059cbb1461063e578063ad3611cd1461067b578063d505accf146106a4578063dd62ed3e146106cd576101f9565b80638da5cb5b116100dc5780638da5cb5b146105965780639012c4a8146105c157806395d89b41146105ea5780639c8f9f2314610615576101f9565b80637ecebe00146104d257806384b0196e1461050f578063870c66d6146105405780638d3dee1c1461056b576101f9565b80633ccfd60b116101905780636816521a1161015f5780636816521a146103ff57806370a082311461042a578063715018a614610467578063735de9f71461047e57806379cc6790146104a9576101f9565b80633ccfd60b1461037857806342966c681461038f57806349bd5a5e146103b857806351c6590a146103e3576101f9565b80631c75f085116101cc5780631c75f085146102ba57806323b872dd146102e5578063313ce567146103225780633644e5151461034d576101f9565b8063058fe99f146101fe57806306fdde0314610227578063095ea7b31461025257806318160ddd1461028f575b600080fd5b34801561020a57600080fd5b5061022560048036038101906102209190613689565b6107e0565b005b34801561023357600080fd5b5061023c610d01565b60405161024991906137fe565b60405180910390f35b34801561025e57600080fd5b5061027960048036038101906102749190613820565b610da2565b604051610286919061387b565b60405180910390f35b34801561029b57600080fd5b506102a4610dc5565b6040516102b191906138a5565b60405180910390f35b3480156102c657600080fd5b506102cf610ddd565b6040516102dc91906138cf565b60405180910390f35b3480156102f157600080fd5b5061030c600480360381019061030791906138ea565b610e03565b604051610319919061387b565b60405180910390f35b34801561032e57600080fd5b50610337610e32565b6040516103449190613959565b60405180910390f35b34801561035957600080fd5b50610362610e3b565b60405161036f919061398d565b60405180910390f35b34801561038457600080fd5b5061038d610e4a565b005b34801561039b57600080fd5b506103b660048036038101906103b191906139a8565b610ee0565b005b3480156103c457600080fd5b506103cd610ef4565b6040516103da9190613a34565b60405180910390f35b6103fd60048036038101906103f891906139a8565b610f1a565b005b34801561040b57600080fd5b506104146112fb565b60405161042191906138a5565b60405180910390f35b34801561043657600080fd5b50610451600480360381019061044c9190613a4f565b611301565b60405161045e91906138a5565b60405180910390f35b34801561047357600080fd5b5061047c611358565b005b34801561048a57600080fd5b5061049361136c565b6040516104a09190613a9d565b60405180910390f35b3480156104b557600080fd5b506104d060048036038101906104cb9190613820565b611392565b005b3480156104de57600080fd5b506104f960048036038101906104f49190613a4f565b6113b2565b60405161050691906138a5565b60405180910390f35b34801561051b57600080fd5b506105246113c4565b6040516105379796959493929190613bb1565b60405180910390f35b34801561054c57600080fd5b506105556114d6565b60405161056291906138a5565b60405180910390f35b34801561057757600080fd5b506105806114dc565b60405161058d91906138a5565b60405180910390f35b3480156105a257600080fd5b506105ab6114e2565b6040516105b891906138cf565b60405180910390f35b3480156105cd57600080fd5b506105e860048036038101906105e391906139a8565b61151a565b005b3480156105f657600080fd5b506105ff61157e565b60405161060c91906137fe565b60405180910390f35b34801561062157600080fd5b5061063c600480360381019061063791906139a8565b61161f565b005b34801561064a57600080fd5b5061066560048036038101906106609190613820565b6116d9565b604051610672919061387b565b60405180910390f35b34801561068757600080fd5b506106a2600480360381019061069d91906139a8565b6117ed565b005b3480156106b057600080fd5b506106cb60048036038101906106c69190613c8d565b611851565b005b3480156106d957600080fd5b506106f460048036038101906106ef9190613d2f565b611999565b60405161070191906138a5565b60405180910390f35b34801561071657600080fd5b5061071f611a2e565b60405161072c91906138a5565b60405180910390f35b34801561074157600080fd5b5061074a611a34565b005b34801561075857600080fd5b50610773600480360381019061076e91906139a8565b611c12565b005b34801561078157600080fd5b5061079c60048036038101906107979190613a4f565b6120f8565b005b3480156107aa57600080fd5b506107c560048036038101906107c09190613a4f565b61217e565b6040516107d796959493929190613d6f565b60405180910390f35b60006107ea6121c7565b905060008160000160089054906101000a900460ff1615905060008260000160009054906101000a900467ffffffffffffffff1690506000808267ffffffffffffffff161480156108385750825b9050600060018367ffffffffffffffff1614801561086d575060003073ffffffffffffffffffffffffffffffffffffffff163b145b90508115801561087b575080155b156108b2576040517ff92ee8a900000000000000000000000000000000000000000000000000000000815260040160405180910390fd5b60018560000160006101000a81548167ffffffffffffffff021916908367ffffffffffffffff16021790555083156109025760018560000160086101000a81548160ff0219169083151502179055505b61090c8a8a6121ef565b610914612205565b61091d8a61220f565b6109268c612259565b6109ab8c60648a600a6109399190613f32565b8960048151811061094d5761094c613f7d565b5b60200260200101518a60028151811061096957610968613f7d565b5b6020026020010151606461097d9190613fac565b6109879190613fac565b8f6109929190613fe0565b61099c9190613fe0565b6109a69190614051565b61226d565b73425141165d3de9fec831896c016617a52363b687600260006101000a81548173ffffffffffffffffffffffffffffffffffffffff021916908373ffffffffffffffffffffffffffffffffffffffff16021790555086600460006101000a81548173ffffffffffffffffffffffffffffffffffffffff021916908373ffffffffffffffffffffffffffffffffffffffff160217905550606488600a610a509190613f32565b87600281518110610a6457610a63613f7d565b5b60200260200101518d610a779190613fe0565b610a819190613fe0565b610a8b9190614051565b600081905550606488600a610aa09190613f32565b87600481518110610ab457610ab3613f7d565b5b60200260200101518d610ac79190613fe0565b610ad19190613fe0565b610adb9190614051565b600181905550610aed3060005461226d565b610af93060015461226d565b610b43600460009054906101000a900473ffffffffffffffffffffffffffffffffffffffff1660005488600381518110610b3657610b35613f7d565b5b60200260200101516122ef565b600086600081518110610b5957610b58613f7d565b5b602002602001015110158015610b8c575061138886600081518110610b8157610b80613f7d565b5b602002602001015111155b610bcb576040517f08c379a0000000000000000000000000000000000000000000000000000000008152600401610bc2906140ce565b60405180910390fd5b600086600181518110610be157610be0613f7d565b5b602002602001015110158015610c14575061138886600181518110610c0957610c08613f7d565b5b602002602001015111155b610c53576040517f08c379a0000000000000000000000000000000000000000000000000000000008152600401610c4a9061413a565b60405180910390fd5b85600081518110610c6757610c66613f7d565b5b602002602001015160058190555085600181518110610c8957610c88613f7d565b5b60200260200101516006819055508315610cf35760008560000160086101000a81548160ff0219169083151502179055507fc7f505b2f371ae2175ee4913f4499e1f2633a7b5936321eed1cdaeb6115181d26001604051610cea91906141a9565b60405180910390a15b505050505050505050505050565b60606000610d0d6123c8565b9050806003018054610d1e906141f3565b80601f0160208091040260200160405190810160405280929190818152602001828054610d4a906141f3565b8015610d975780601f10610d6c57610100808354040283529160200191610d97565b820191906000526020600020905b815481529060010190602001808311610d7a57829003601f168201915b505050505091505090565b600080610dad6123f0565b9050610dba8185856123f8565b600191505092915050565b600080610dd06123c8565b9050806002015491505090565b600460009054906101000a900473ffffffffffffffffffffffffffffffffffffffff1681565b600080610e0e6123f0565b9050610e1b85828561240a565b610e2685858561249e565b60019150509392505050565b60006012905090565b6000610e45612592565b905090565b610e526125a1565b600047905060003390508073ffffffffffffffffffffffffffffffffffffffff166108fc839081150290604051600060405180830381858888f19350505050158015610ea2573d6000803e3d6000fd5b507f884edad9ce6fa2440d8a54cc123490eb96d2768479d49ff9c7366125a94243643383604051610ed4929190614224565b60405180910390a15050565b610ef1610eeb6123f0565b82612628565b50565b600360009054906101000a900473ffffffffffffffffffffffffffffffffffffffff1681565b80610f2b610f266123f0565b611301565b1015610f6c576040517f08c379a0000000000000000000000000000000000000000000000000000000008152600401610f63906142bf565b60405180910390fd5b600073ffffffffffffffffffffffffffffffffffffffff16600360009054906101000a900473ffffffffffffffffffffffffffffffffffffffff1673ffffffffffffffffffffffffffffffffffffffff16036111a7576000600260009054906101000a900473ffffffffffffffffffffffffffffffffffffffff1673ffffffffffffffffffffffffffffffffffffffff1663c45a01556040518163ffffffff1660e01b8152600401602060405180830381865afa158015611031573d6000803e3d6000fd5b505050506040513d601f19601f8201168201806040525081019061105591906142f4565b73ffffffffffffffffffffffffffffffffffffffff1663c9c6539630600260009054906101000a900473ffffffffffffffffffffffffffffffffffffffff1673ffffffffffffffffffffffffffffffffffffffff1663ad5c46486040518163ffffffff1660e01b8152600401602060405180830381865afa1580156110de573d6000803e3d6000fd5b505050506040513d601f19601f8201168201806040525081019061110291906142f4565b6040518363ffffffff1660e01b815260040161111f929190614321565b6020604051808303816000875af115801561113e573d6000803e3d6000fd5b505050506040513d601f19601f8201168201806040525081019061116291906142f4565b905080600360006101000a81548173ffffffffffffffffffffffffffffffffffffffff021916908373ffffffffffffffffffffffffffffffffffffffff160217905550505b6111d430600260009054906101000a900473ffffffffffffffffffffffffffffffffffffffff16836123f8565b600260009054906101000a900473ffffffffffffffffffffffffffffffffffffffff1673ffffffffffffffffffffffffffffffffffffffff1663f305d7193430846000806112206114e2565b61012c4261122e919061434a565b6040518863ffffffff1660e01b815260040161124f969594939291906143b9565b60606040518083038185885af19350505050801561128b57506040513d601f19601f82011682018060405250810190611288919061442f565b60015b6112f4576112a13061129b6123f0565b8361249e565b6112a96123f0565b73ffffffffffffffffffffffffffffffffffffffff166108fc349081150290604051600060405180830381858888f193505050501580156112ee573d6000803e3d6000fd5b506112f8565b5050505b50565b60005481565b60008061130c6123c8565b90508060000160008473ffffffffffffffffffffffffffffffffffffffff1673ffffffffffffffffffffffffffffffffffffffff16815260200190815260200160002054915050919050565b6113606125a1565b61136a60006126aa565b565b600260009054906101000a900473ffffffffffffffffffffffffffffffffffffffff1681565b6113a48261139e6123f0565b8361240a565b6113ae8282612628565b5050565b60006113bd82612781565b9050919050565b60006060806000806000606060006113da6127d8565b90506000801b81600001541480156113f857506000801b8160010154145b611437576040517f08c379a000000000000000000000000000000000000000000000000000000000815260040161142e906144ce565b60405180910390fd5b61143f612800565b6114476128a1565b46306000801b600067ffffffffffffffff81111561146857611467613496565b5b6040519080825280602002602001820160405280156114965781602001602082028036833780820191505090505b507f0f0000000000000000000000000000000000000000000000000000000000000095949392919097509750975097509750975097505090919293949596565b60065481565b60015481565b6000806114ed612942565b90508060000160009054906101000a900473ffffffffffffffffffffffffffffffffffffffff1691505090565b6115226125a1565b6000811015801561153557506113888111155b611574576040517f08c379a000000000000000000000000000000000000000000000000000000000815260040161156b9061413a565b60405180910390fd5b8060068190555050565b6060600061158a6123c8565b905080600401805461159b906141f3565b80601f01602080910402602001604051908101604052809291908181526020018280546115c7906141f3565b80156116145780601f106115e957610100808354040283529160200191611614565b820191906000526020600020905b8154815290600101906020018083116115f757829003601f168201915b505050505091505090565b600260009054906101000a900473ffffffffffffffffffffffffffffffffffffffff1673ffffffffffffffffffffffffffffffffffffffff166302751cec30836000803361012c42611671919061434a565b6040518763ffffffff1660e01b8152600401611692969594939291906143b9565b60408051808303816000875af11580156116b0573d6000803e3d6000fd5b505050506040513d601f19601f820116820180604052508101906116d491906144ee565b505050565b6000806116e46123f0565b90506116f181858561249e565b600080600060055411801561173957506117096114e2565b73ffffffffffffffffffffffffffffffffffffffff168373ffffffffffffffffffffffffffffffffffffffff1614155b15611766576127106005548661174f9190613fe0565b6117599190614051565b91506117658683612628565b5b60006006541180156117ab575061177b6114e2565b73ffffffffffffffffffffffffffffffffffffffff168373ffffffffffffffffffffffffffffffffffffffff1614155b156117e057612710600654866117c19190613fe0565b6117cb9190614051565b90506117df866117d96114e2565b8361249e565b5b6001935050505092915050565b6117f56125a1565b6000811015801561180857506113888111155b611847576040517f08c379a000000000000000000000000000000000000000000000000000000000815260040161183e906140ce565b60405180910390fd5b8060058190555050565b8342111561189657836040517f6279130200000000000000000000000000000000000000000000000000000000815260040161188d91906138a5565b60405180910390fd5b60007f6e71edae12b1b97f4d1f60370fef10105fa2faae0126114a169c64845d6126c98888886118c58c61296a565b896040516020016118db9695949392919061452e565b60405160208183030381529060405280519060200120905060006118fe826129cf565b9050600061190e828787876129e9565b90508973ffffffffffffffffffffffffffffffffffffffff168173ffffffffffffffffffffffffffffffffffffffff161461198257808a6040517f4b800e46000000000000000000000000000000000000000000000000000000008152600401611979929190614321565b60405180910390fd5b61198d8a8a8a6123f8565b50505050505050505050565b6000806119a46123c8565b90508060010160008573ffffffffffffffffffffffffffffffffffffffff1673ffffffffffffffffffffffffffffffffffffffff16815260200190815260200160002060008473ffffffffffffffffffffffffffffffffffffffff1673ffffffffffffffffffffffffffffffffffffffff1681526020019081526020016000205491505092915050565b60055481565b6000600760003373ffffffffffffffffffffffffffffffffffffffff1673ffffffffffffffffffffffffffffffffffffffff16815260200190815260200160002090508060050160009054906101000a900460ff16611ac8576040517f08c379a0000000000000000000000000000000000000000000000000000000008152600401611abf90614601565b60405180910390fd5b80600201544211611b0e576040517f08c379a0000000000000000000000000000000000000000000000000000000008152600401611b059061466d565b60405180910390fd5b6000816004015442611b209190613fac565b905060008260030154828460000154611b399190613fe0565b611b439190614051565b905060008111611b88576040517f08c379a0000000000000000000000000000000000000000000000000000000008152600401611b7f906146ff565b60405180910390fd5b8260000154818460010154611b9d919061434a565b1115611bde576040517f08c379a0000000000000000000000000000000000000000000000000000000008152600401611bd59061476b565b60405180910390fd5b80836001016000828254611bf2919061434a565b92505081905550428360040181905550611c0d30338361249e565b505050565b600360009054906101000a900473ffffffffffffffffffffffffffffffffffffffff1673ffffffffffffffffffffffffffffffffffffffff166323b872dd3330846040518463ffffffff1660e01b8152600401611c719392919061478b565b6020604051808303816000875af1158015611c90573d6000803e3d6000fd5b505050506040513d601f19601f82011682018060405250810190611cb491906147ee565b50600360009054906101000a900473ffffffffffffffffffffffffffffffffffffffff1673ffffffffffffffffffffffffffffffffffffffff1663095ea7b3600260009054906101000a900473ffffffffffffffffffffffffffffffffffffffff16836040518363ffffffff1660e01b8152600401611d34929190614224565b6020604051808303816000875af1158015611d53573d6000803e3d6000fd5b505050506040513d601f19601f82011682018060405250810190611d7791906147ee565b50600080600260009054906101000a900473ffffffffffffffffffffffffffffffffffffffff1673ffffffffffffffffffffffffffffffffffffffff1663baa2abde30600260009054906101000a900473ffffffffffffffffffffffffffffffffffffffff1673ffffffffffffffffffffffffffffffffffffffff1663ad5c46486040518163ffffffff1660e01b8152600401602060405180830381865afa158015611e27573d6000803e3d6000fd5b505050506040513d601f19601f82011682018060405250810190611e4b91906142f4565b866000803061012c42611e5e919061434a565b6040518863ffffffff1660e01b8152600401611e80979695949392919061481b565b60408051808303816000875af1158015611e9e573d6000803e3d6000fd5b505050506040513d601f19601f82011682018060405250810190611ec291906144ee565b91509150600360009054906101000a900473ffffffffffffffffffffffffffffffffffffffff1673ffffffffffffffffffffffffffffffffffffffff166389afcb44306040518263ffffffff1660e01b8152600401611f2191906138cf565b60408051808303816000875af1158015611f3f573d6000803e3d6000fd5b505050506040513d601f19601f82011682018060405250810190611f6391906144ee565b50503073ffffffffffffffffffffffffffffffffffffffff1663a9059cbb33846040518363ffffffff1660e01b8152600401611fa0929190614224565b6020604051808303816000875af1158015611fbf573d6000803e3d6000fd5b505050506040513d601f19601f82011682018060405250810190611fe391906147ee565b50600260009054906101000a900473ffffffffffffffffffffffffffffffffffffffff1673ffffffffffffffffffffffffffffffffffffffff1663ad5c46486040518163ffffffff1660e01b8152600401602060405180830381865afa158015612051573d6000803e3d6000fd5b505050506040513d601f19601f8201168201806040525081019061207591906142f4565b73ffffffffffffffffffffffffffffffffffffffff1663a9059cbb33836040518363ffffffff1660e01b81526004016120af929190614224565b6020604051808303816000875af11580156120ce573d6000803e3d6000fd5b505050506040513d601f19601f820116820180604052508101906120f291906147ee565b50505050565b6121006125a1565b600073ffffffffffffffffffffffffffffffffffffffff168173ffffffffffffffffffffffffffffffffffffffff16036121725760006040517f1e4fbdf700000000000000000000000000000000000000000000000000000000815260040161216991906138cf565b60405180910390fd5b61217b816126aa565b50565b60076020528060005260406000206000915090508060000154908060010154908060020154908060030154908060040154908060050160009054906101000a900460ff16905086565b60007ff0c57e16840df040f15088dc2f81fe391c3923bec73e23a9662efc9c229c6a00905090565b6121f7612a19565b6122018282612a59565b5050565b61220d612a19565b565b612217612a19565b612256816040518060400160405280600181526020017f3100000000000000000000000000000000000000000000000000000000000000815250612a96565b50565b612261612a19565b61226a81612aeb565b50565b600073ffffffffffffffffffffffffffffffffffffffff168273ffffffffffffffffffffffffffffffffffffffff16036122df5760006040517fec442f050000000000000000000000000000000000000000000000000000000081526004016122d691906138cf565b60405180910390fd5b6122eb60008383612b71565b5050565b600054821115612334576040517f08c379a000000000000000000000000000000000000000000000000000000000815260040161232b906148fc565b60405180910390fd5b6000600760008573ffffffffffffffffffffffffffffffffffffffff1673ffffffffffffffffffffffffffffffffffffffff16815260200190815260200160002090508281600001819055504281600201819055508181600301819055506000816001018190555042816004018190555060018160050160006101000a81548160ff02191690831515021790555050505050565b60007f52c63247e1f47db19d5ce0460030c497f067ca4cebf71ba98eeadabe20bace00905090565b600033905090565b6124058383836001612db0565b505050565b60006124168484611999565b90507fffffffffffffffffffffffffffffffffffffffffffffffffffffffffffffffff81146124985781811015612488578281836040517ffb8f41b200000000000000000000000000000000000000000000000000000000815260040161247f9392919061491c565b60405180910390fd5b61249784848484036000612db0565b5b50505050565b600073ffffffffffffffffffffffffffffffffffffffff168373ffffffffffffffffffffffffffffffffffffffff16036125105760006040517f96c6fd1e00000000000000000000000000000000000000000000000000000000815260040161250791906138cf565b60405180910390fd5b600073ffffffffffffffffffffffffffffffffffffffff168273ffffffffffffffffffffffffffffffffffffffff16036125825760006040517fec442f0500000000000000000000000000000000000000000000000000000000815260040161257991906138cf565b60405180910390fd5b61258d838383612b71565b505050565b600061259c612f96565b905090565b6125a96123f0565b73ffffffffffffffffffffffffffffffffffffffff166125c76114e2565b73ffffffffffffffffffffffffffffffffffffffff1614612626576125ea6123f0565b6040517f118cdaa700000000000000000000000000000000000000000000000000000000815260040161261d91906138cf565b60405180910390fd5b565b600073ffffffffffffffffffffffffffffffffffffffff168273ffffffffffffffffffffffffffffffffffffffff160361269a5760006040517f96c6fd1e00000000000000000000000000000000000000000000000000000000815260040161269191906138cf565b60405180910390fd5b6126a682600083612b71565b5050565b60006126b4612942565b905060008160000160009054906101000a900473ffffffffffffffffffffffffffffffffffffffff169050828260000160006101000a81548173ffffffffffffffffffffffffffffffffffffffff021916908373ffffffffffffffffffffffffffffffffffffffff1602179055508273ffffffffffffffffffffffffffffffffffffffff168173ffffffffffffffffffffffffffffffffffffffff167f8be0079c531659141344cd1fd0a4f28419497f9722a3daafe3b4186f6b6457e060405160405180910390a3505050565b60008061278c612ffa565b90508060000160008473ffffffffffffffffffffffffffffffffffffffff1673ffffffffffffffffffffffffffffffffffffffff16815260200190815260200160002054915050919050565b60007fa16a46d94261c7517cc8ff89f61c0ce93598e3c849801011dee649a6a557d100905090565b6060600061280c6127d8565b905080600201805461281d906141f3565b80601f0160208091040260200160405190810160405280929190818152602001828054612849906141f3565b80156128965780601f1061286b57610100808354040283529160200191612896565b820191906000526020600020905b81548152906001019060200180831161287957829003601f168201915b505050505091505090565b606060006128ad6127d8565b90508060030180546128be906141f3565b80601f01602080910402602001604051908101604052809291908181526020018280546128ea906141f3565b80156129375780601f1061290c57610100808354040283529160200191612937565b820191906000526020600020905b81548152906001019060200180831161291a57829003601f168201915b505050505091505090565b60007f9016d09d72d40fdae2fd8ceac6b6234c7706214fd39c1cd1e609a0528c199300905090565b600080612975612ffa565b90508060000160008473ffffffffffffffffffffffffffffffffffffffff1673ffffffffffffffffffffffffffffffffffffffff168152602001908152602001600020600081548092919060010191905055915050919050565b60006129e26129dc612592565b83613022565b9050919050565b6000806000806129fb88888888613063565b925092509250612a0b8282613157565b829350505050949350505050565b612a216132bb565b612a57576040517fd7e6bcf800000000000000000000000000000000000000000000000000000000815260040160405180910390fd5b565b612a61612a19565b6000612a6b6123c8565b905082816003019081612a7e9190614af5565b5081816004019081612a909190614af5565b50505050565b612a9e612a19565b6000612aa86127d8565b905082816002019081612abb9190614af5565b5081816003019081612acd9190614af5565b506000801b81600001819055506000801b8160010181905550505050565b612af3612a19565b600073ffffffffffffffffffffffffffffffffffffffff168173ffffffffffffffffffffffffffffffffffffffff1603612b655760006040517f1e4fbdf7000000000000000000000000000000000000000000000000000000008152600401612b5c91906138cf565b60405180910390fd5b612b6e816126aa565b50565b6000612b7b6123c8565b9050600073ffffffffffffffffffffffffffffffffffffffff168473ffffffffffffffffffffffffffffffffffffffff1603612bd15781816002016000828254612bc5919061434a565b92505081905550612caa565b60008160000160008673ffffffffffffffffffffffffffffffffffffffff1673ffffffffffffffffffffffffffffffffffffffff16815260200190815260200160002054905082811015612c60578481846040517fe450d38c000000000000000000000000000000000000000000000000000000008152600401612c579392919061491c565b60405180910390fd5b8281038260000160008773ffffffffffffffffffffffffffffffffffffffff1673ffffffffffffffffffffffffffffffffffffffff16815260200190815260200160002081905550505b600073ffffffffffffffffffffffffffffffffffffffff168373ffffffffffffffffffffffffffffffffffffffff1603612cf557818160020160008282540392505081905550612d45565b818160000160008573ffffffffffffffffffffffffffffffffffffffff1673ffffffffffffffffffffffffffffffffffffffff168152602001908152602001600020600082825401925050819055505b8273ffffffffffffffffffffffffffffffffffffffff168473ffffffffffffffffffffffffffffffffffffffff167fddf252ad1be2c89b69c2b068fc378daa952ba7f163c4a11628f55a4df523b3ef84604051612da291906138a5565b60405180910390a350505050565b6000612dba6123c8565b9050600073ffffffffffffffffffffffffffffffffffffffff168573ffffffffffffffffffffffffffffffffffffffff1603612e2e5760006040517fe602df05000000000000000000000000000000000000000000000000000000008152600401612e2591906138cf565b60405180910390fd5b600073ffffffffffffffffffffffffffffffffffffffff168473ffffffffffffffffffffffffffffffffffffffff1603612ea05760006040517f94280d62000000000000000000000000000000000000000000000000000000008152600401612e9791906138cf565b60405180910390fd5b828160010160008773ffffffffffffffffffffffffffffffffffffffff1673ffffffffffffffffffffffffffffffffffffffff16815260200190815260200160002060008673ffffffffffffffffffffffffffffffffffffffff1673ffffffffffffffffffffffffffffffffffffffff168152602001908152602001600020819055508115612f8f578373ffffffffffffffffffffffffffffffffffffffff168573ffffffffffffffffffffffffffffffffffffffff167f8c5be1e5ebec7d5bd14f71427d1e84f3dd0314c0f7b2291e5b200ac8c7c3b92585604051612f8691906138a5565b60405180910390a35b5050505050565b60007f8b73c3c69bb8fe3d512ecc4cf759cc79239f7b179b0ffacaa9a75d522b39400f612fc16132db565b612fc9613357565b4630604051602001612fdf959493929190614bc7565b60405160208183030381529060405280519060200120905090565b60007f5ab42ced628888259c08ac98db1eb0cf702fc1501344311d8b100cd1bfe4bb00905090565b60006040517f190100000000000000000000000000000000000000000000000000000000000081528360028201528260228201526042812091505092915050565b60008060007f7fffffffffffffffffffffffffffffff5d576e7357a4501ddfe92f46681b20a08460001c11156130a357600060038592509250925061314d565b6000600188888888604051600081526020016040526040516130c89493929190614c1a565b6020604051602081039080840390855afa1580156130ea573d6000803e3d6000fd5b505050602060405103519050600073ffffffffffffffffffffffffffffffffffffffff168173ffffffffffffffffffffffffffffffffffffffff160361313e57600060016000801b9350935093505061314d565b8060008060001b935093509350505b9450945094915050565b6000600381111561316b5761316a614c5f565b5b82600381111561317e5761317d614c5f565b5b03156132b7576001600381111561319857613197614c5f565b5b8260038111156131ab576131aa614c5f565b5b036131e2576040517ff645eedf00000000000000000000000000000000000000000000000000000000815260040160405180910390fd5b600260038111156131f6576131f5614c5f565b5b82600381111561320957613208614c5f565b5b0361324e578060001c6040517ffce698f700000000000000000000000000000000000000000000000000000000815260040161324591906138a5565b60405180910390fd5b60038081111561326157613260614c5f565b5b82600381111561327457613273614c5f565b5b036132b657806040517fd78bce0c0000000000000000000000000000000000000000000000000000000081526004016132ad919061398d565b60405180910390fd5b5b5050565b60006132c56121c7565b60000160089054906101000a900460ff16905090565b6000806132e66127d8565b905060006132f2612800565b905060008151111561330f57808051906020012092505050613354565b6000826000015490506000801b811461332d57809350505050613354565b7fc5d2460186f7233c927e7db2dcc703c0e500b653ca82273b7bfad8045d85a47093505050505b90565b6000806133626127d8565b9050600061336e6128a1565b905060008151111561338b578080519060200120925050506133d0565b6000826001015490506000801b81146133a9578093505050506133d0565b7fc5d2460186f7233c927e7db2dcc703c0e500b653ca82273b7bfad8045d85a47093505050505b90565b6000604051905090565b600080fd5b600080fd5b600073ffffffffffffffffffffffffffffffffffffffff82169050919050565b6000613412826133e7565b9050919050565b61342281613407565b811461342d57600080fd5b50565b60008135905061343f81613419565b92915050565b6000819050919050565b61345881613445565b811461346357600080fd5b50565b6000813590506134758161344f565b92915050565b600080fd5b600080fd5b6000601f19601f8301169050919050565b7f4e487b7100000000000000000000000000000000000000000000000000000000600052604160045260246000fd5b6134ce82613485565b810181811067ffffffffffffffff821117156134ed576134ec613496565b5b80604052505050565b60006135006133d3565b905061350c82826134c5565b919050565b600067ffffffffffffffff82111561352c5761352b613496565b5b61353582613485565b9050602081019050919050565b82818337600083830152505050565b600061356461355f84613511565b6134f6565b9050828152602081018484840111156135805761357f613480565b5b61358b848285613542565b509392505050565b600082601f8301126135a8576135a761347b565b5b81356135b8848260208601613551565b91505092915050565b600067ffffffffffffffff8211156135dc576135db613496565b5b602082029050602081019050919050565b600080fd5b6000613605613600846135c1565b6134f6565b90508083825260208201905060208402830185811115613628576136276135ed565b5b835b81811015613651578061363d8882613466565b84526020840193505060208101905061362a565b5050509392505050565b600082601f8301126136705761366f61347b565b5b81356136808482602086016135f2565b91505092915050565b600080600080600080600060e0888a0312156136a8576136a76133dd565b5b60006136b68a828b01613430565b97505060206136c78a828b01613466565b965050604088013567ffffffffffffffff8111156136e8576136e76133e2565b5b6136f48a828b01613593565b955050606088013567ffffffffffffffff811115613715576137146133e2565b5b6137218a828b01613593565b94505060806137328a828b01613466565b93505060a06137438a828b01613430565b92505060c088013567ffffffffffffffff811115613764576137636133e2565b5b6137708a828b0161365b565b91505092959891949750929550565b600081519050919050565b600082825260208201905092915050565b60005b838110156137b957808201518184015260208101905061379e565b60008484015250505050565b60006137d08261377f565b6137da818561378a565b93506137ea81856020860161379b565b6137f381613485565b840191505092915050565b6000602082019050818103600083015261381881846137c5565b905092915050565b60008060408385031215613837576138366133dd565b5b600061384585828601613430565b925050602061385685828601613466565b9150509250929050565b60008115159050919050565b61387581613860565b82525050565b6000602082019050613890600083018461386c565b92915050565b61389f81613445565b82525050565b60006020820190506138ba6000830184613896565b92915050565b6138c981613407565b82525050565b60006020820190506138e460008301846138c0565b92915050565b600080600060608486031215613903576139026133dd565b5b600061391186828701613430565b935050602061392286828701613430565b925050604061393386828701613466565b9150509250925092565b600060ff82169050919050565b6139538161393d565b82525050565b600060208201905061396e600083018461394a565b92915050565b6000819050919050565b61398781613974565b82525050565b60006020820190506139a2600083018461397e565b92915050565b6000602082840312156139be576139bd6133dd565b5b60006139cc84828501613466565b91505092915050565b6000819050919050565b60006139fa6139f56139f0846133e7565b6139d5565b6133e7565b9050919050565b6000613a0c826139df565b9050919050565b6000613a1e82613a01565b9050919050565b613a2e81613a13565b82525050565b6000602082019050613a496000830184613a25565b92915050565b600060208284031215613a6557613a646133dd565b5b6000613a7384828501613430565b91505092915050565b6000613a8782613a01565b9050919050565b613a9781613a7c565b82525050565b6000602082019050613ab26000830184613a8e565b92915050565b60007fff0000000000000000000000000000000000000000000000000000000000000082169050919050565b613aed81613ab8565b82525050565b600081519050919050565b600082825260208201905092915050565b6000819050602082019050919050565b613b2881613445565b82525050565b6000613b3a8383613b1f565b60208301905092915050565b6000602082019050919050565b6000613b5e82613af3565b613b688185613afe565b9350613b7383613b0f565b8060005b83811015613ba4578151613b8b8882613b2e565b9750613b9683613b46565b925050600181019050613b77565b5085935050505092915050565b600060e082019050613bc6600083018a613ae4565b8181036020830152613bd881896137c5565b90508181036040830152613bec81886137c5565b9050613bfb6060830187613896565b613c0860808301866138c0565b613c1560a083018561397e565b81810360c0830152613c278184613b53565b905098975050505050505050565b613c3e8161393d565b8114613c4957600080fd5b50565b600081359050613c5b81613c35565b92915050565b613c6a81613974565b8114613c7557600080fd5b50565b600081359050613c8781613c61565b92915050565b600080600080600080600060e0888a031215613cac57613cab6133dd565b5b6000613cba8a828b01613430565b9750506020613ccb8a828b01613430565b9650506040613cdc8a828b01613466565b9550506060613ced8a828b01613466565b9450506080613cfe8a828b01613c4c565b93505060a0613d0f8a828b01613c78565b92505060c0613d208a828b01613c78565b91505092959891949750929550565b60008060408385031215613d4657613d456133dd565b5b6000613d5485828601613430565b9250506020613d6585828601613430565b9150509250929050565b600060c082019050613d846000830189613896565b613d916020830188613896565b613d9e6040830187613896565b613dab6060830186613896565b613db86080830185613896565b613dc560a083018461386c565b979650505050505050565b7f4e487b7100000000000000000000000000000000000000000000000000000000600052601160045260246000fd5b60008160011c9050919050565b6000808291508390505b6001851115613e5657808604811115613e3257613e31613dd0565b5b6001851615613e415780820291505b8081029050613e4f85613dff565b9450613e16565b94509492505050565b600082613e6f5760019050613f2b565b81613e7d5760009050613f2b565b8160018114613e935760028114613e9d57613ecc565b6001915050613f2b565b60ff841115613eaf57613eae613dd0565b5b8360020a915084821115613ec657613ec5613dd0565b5b50613f2b565b5060208310610133831016604e8410600b8410161715613f015782820a905083811115613efc57613efb613dd0565b5b613f2b565b613f0e8484846001613e0c565b92509050818404811115613f2557613f24613dd0565b5b81810290505b9392505050565b6000613f3d82613445565b9150613f4883613445565b9250613f757fffffffffffffffffffffffffffffffffffffffffffffffffffffffffffffffff8484613e5f565b905092915050565b7f4e487b7100000000000000000000000000000000000000000000000000000000600052603260045260246000fd5b6000613fb782613445565b9150613fc283613445565b9250828203905081811115613fda57613fd9613dd0565b5b92915050565b6000613feb82613445565b9150613ff683613445565b925082820261400481613445565b9150828204841483151761401b5761401a613dd0565b5b5092915050565b7f4e487b7100000000000000000000000000000000000000000000000000000000600052601260045260246000fd5b600061405c82613445565b915061406783613445565b92508261407757614076614022565b5b828204905092915050565b7f54524144455f4255524e5f524154494f5f494e56414c49440000000000000000600082015250565b60006140b860188361378a565b91506140c382614082565b602082019050919050565b600060208201905081810360008301526140e7816140ab565b9050919050565b7f54524144455f4645455f524154494f5f494e56414c4944000000000000000000600082015250565b600061412460178361378a565b915061412f826140ee565b602082019050919050565b6000602082019050818103600083015261415381614117565b9050919050565b6000819050919050565b600067ffffffffffffffff82169050919050565b600061419361418e6141898461415a565b6139d5565b614164565b9050919050565b6141a381614178565b82525050565b60006020820190506141be600083018461419a565b92915050565b7f4e487b7100000000000000000000000000000000000000000000000000000000600052602260045260246000fd5b6000600282049050600182168061420b57607f821691505b60208210810361421e5761421d6141c4565b5b50919050565b600060408201905061423960008301856138c0565b6142466020830184613896565b9392505050565b7f496e73756666696369656e7420746f6b656e2062616c616e636520696e20736560008201527f6e646572206163636f756e740000000000000000000000000000000000000000602082015250565b60006142a9602c8361378a565b91506142b48261424d565b604082019050919050565b600060208201905081810360008301526142d88161429c565b9050919050565b6000815190506142ee81613419565b92915050565b60006020828403121561430a576143096133dd565b5b6000614318848285016142df565b91505092915050565b600060408201905061433660008301856138c0565b61434360208301846138c0565b9392505050565b600061435582613445565b915061436083613445565b925082820190508082111561437857614377613dd0565b5b92915050565b6000819050919050565b60006143a361439e6143998461437e565b6139d5565b613445565b9050919050565b6143b381614388565b82525050565b600060c0820190506143ce60008301896138c0565b6143db6020830188613896565b6143e860408301876143aa565b6143f560608301866143aa565b61440260808301856138c0565b61440f60a0830184613896565b979650505050505050565b6000815190506144298161344f565b92915050565b600080600060608486031215614448576144476133dd565b5b60006144568682870161441a565b93505060206144678682870161441a565b92505060406144788682870161441a565b9150509250925092565b7f4549503731323a20556e696e697469616c697a65640000000000000000000000600082015250565b60006144b860158361378a565b91506144c382614482565b602082019050919050565b600060208201905081810360008301526144e7816144ab565b9050919050565b60008060408385031215614505576145046133dd565b5b60006145138582860161441a565b92505060206145248582860161441a565b9150509250929050565b600060c082019050614543600083018961397e565b61455060208301886138c0565b61455d60408301876138c0565b61456a6060830186613896565b6145776080830185613896565b61458460a0830184613896565b979650505050505050565b7f596f7520646f206e6f74206861766520616e206163746976652076657374696e60008201527f67207363686564756c652e000000000000000000000000000000000000000000602082015250565b60006145eb602b8361378a565b91506145f68261458f565b604082019050919050565b6000602082019050818103600083015261461a816145de565b9050919050565b7f56657374696e6720686173206e6f742073746172746564207965740000000000600082015250565b6000614657601b8361378a565b915061466282614621565b602082019050919050565b600060208201905081810360008301526146868161464a565b9050919050565b7f4e6f2076657374656420746f6b656e7320617661696c61626c6520746f20636c60008201527f61696d0000000000000000000000000000000000000000000000000000000000602082015250565b60006146e960238361378a565b91506146f48261468d565b604082019050919050565b60006020820190508181036000830152614718816146dc565b9050919050565b7f436c61696d206578636565647320616c6c6f636174696f6e0000000000000000600082015250565b600061475560188361378a565b91506147608261471f565b602082019050919050565b6000602082019050818103600083015261478481614748565b9050919050565b60006060820190506147a060008301866138c0565b6147ad60208301856138c0565b6147ba6040830184613896565b949350505050565b6147cb81613860565b81146147d657600080fd5b50565b6000815190506147e8816147c2565b92915050565b600060208284031215614804576148036133dd565b5b6000614812848285016147d9565b91505092915050565b600060e082019050614830600083018a6138c0565b61483d60208301896138c0565b61484a6040830188613896565b61485760608301876143aa565b61486460808301866143aa565b61487160a08301856138c0565b61487e60c0830184613896565b98975050505050505050565b7f4e6f7420656e6f75676820746f6b656e7320616c6c6f636174656420666f722060008201527f76657374696e6700000000000000000000000000000000000000000000000000602082015250565b60006148e660278361378a565b91506148f18261488a565b604082019050919050565b60006020820190508181036000830152614915816148d9565b9050919050565b600060608201905061493160008301866138c0565b61493e6020830185613896565b61494b6040830184613896565b949350505050565b60008190508160005260206000209050919050565b60006020601f8301049050919050565b600082821b905092915050565b6000600883026149b57fffffffffffffffffffffffffffffffffffffffffffffffffffffffffffffffff82614978565b6149bf8683614978565b95508019841693508086168417925050509392505050565b60006149f26149ed6149e884613445565b6139d5565b613445565b9050919050565b6000819050919050565b614a0c836149d7565b614a20614a18826149f9565b848454614985565b825550505050565b600090565b614a35614a28565b614a40818484614a03565b505050565b5b81811015614a6457614a59600082614a2d565b600181019050614a46565b5050565b601f821115614aa957614a7a81614953565b614a8384614968565b81016020851015614a92578190505b614aa6614a9e85614968565b830182614a45565b50505b505050565b600082821c905092915050565b6000614acc60001984600802614aae565b1980831691505092915050565b6000614ae58383614abb565b9150826002028217905092915050565b614afe8261377f565b67ffffffffffffffff811115614b1757614b16613496565b5b614b2182546141f3565b614b2c828285614a68565b600060209050601f831160018114614b5f5760008415614b4d578287015190505b614b578582614ad9565b865550614bbf565b601f198416614b6d86614953565b60005b82811015614b9557848901518255600182019150602085019450602081019050614b70565b86831015614bb25784890151614bae601f891682614abb565b8355505b6001600288020188555050505b505050505050565b600060a082019050614bdc600083018861397e565b614be9602083018761397e565b614bf6604083018661397e565b614c036060830185613896565b614c1060808301846138c0565b9695505050505050565b6000608082019050614c2f600083018761397e565b614c3c602083018661394a565b614c49604083018561397e565b614c56606083018461397e565b95945050505050565b7f4e487b7100000000000000000000000000000000000000000000000000000000600052602160045260246000fdfea2646970667358221220a7653d05dc39795fef494e83a6700a395120663a9d404925c4d04ba3bba8242764736f6c63430008190033",
  "linkReferences": {},
  "deployedLinkReferences": {}
}